:020000040800F2
:1000000070060020350200083B0D0008910C000826
:10001000390D00082B04000825130008000000001B
:100020000000000000000000000000003F0D00087C
:100030002D040008000000003D0D0008AD1100086F
:100040004F0200084F0200084F0200084F0200084C
:100050004F0200084F0200084F0200084F0200083C
:100060004F0200084F0200084F0200084F0200082C
:100070004F0200084F0200084F0200084F0200081C
:100080004F0200084F0200084F0200080000000065
:100090000000000000000000000000004F02000807
:1000A0004F0200084F0200084F0200084F020008EC
:1000B0004F0200084F0200084F0200084F020008DC
:1000C0004F0200084F0200084F0200084F020008CC
:1000D0004F0200084F0200084F0200080000000015
:1000E0004F0200084F0200084F0200080000000005
:1000F0000000000000000000000000004F020008A7
:10010000000000004F0200084F0200084F020008E4
:1001100000000000000000000000000000000000DF
:100120004F0200084F0200084F0200084F0200086B
:100130004F02000800000000000000000000000066
:100140000000000000000000000000004F02000856
:100150004F0200084F0200084F0200084F0200083B
:100160004F0200084F0200080000000000000000DD
:10017000000000000000000000000000000000007F
:10018000000000004F020008000000000000000016
:100190004F02000800F002F800F03CF80AA090E8D6
:1001A000000C82448344AAF10107DA4501D100F032
:1001B00031F8AFF2090EBAE80F0013F0010F18BFC3
:1001C000FB1A43F001031847C8110000E8110000B2
:1001D000103A24BF78C878C1FAD8520724BF30C873
:1001E00030C144BF04680C60704700000023002445
:1001F00000250026103A28BF78C1FBD8520728BF37
:1002000030C148BF0B6070471FB501F0B4F81FBD87
:1002100010B510BD00F0CFF81146FFF7F5FF01F063
:1002200092F800F0EDF803B4FFF7F2FF03BC00F022
:10023000F5F800000948804709480047FEE7FEE757
:10024000FEE7FEE7FEE7FEE7FEE7FEE7FEE7FEE786
:1002500004480549054A064B70470000351200085E
:100260009501000870000020700600207002002038
:100270007002002053EA020C00F069802DE9F04B77
:100280004FF00006002B1FBFB3FA83F503FA05F405
:1002900024FA05F65E4012BF1643B2FA82F502FA5E
:1002A00005F4C5F120051EBF22FA05FC44EA0C0442
:1002B000203556EA044C4FEA144418BF641C4FF032
:1002C00000084FF00009904271EB030C39D300296C
:1002D00019BFB1FA81F701FA07F6B0FA80F700FA10
:1002E00007F6C7F120071EBF20FA07FC46EA0C06F6
:1002F0002037B6FBF4FCA7EB0507103F07F01F0BF8
:10030000CBF120060CFA0BFB2CFA06F644BFB346E1
:100310000026202FA4BF5E464FF0000B5BEA060CC0
:1003200008BF4FF0010B19EB0B09ABFB027C48EB4C
:100330000608C01B06FB02CC0BFB03CC71EB0C01C7
:10034000C1E70B46024641464846BDE8F08B13B56F
:100350004FF000004FF00001AFF30080BDE81C40FB
:1003600070474FF0000200B5134694469646203978
:1003700022BFA0E80C50A0E80C50B1F12001BFF45E
:10038000F7AF090728BFA0E80C5048BF0CC05DF8C4
:1003900004EB890028BF40F8042B08BF704748BF12
:1003A00020F8022B11F0804F18BF00F8012B704786
:1003B000704770477047754600F02CF8AE46050050
:1003C0006946534620F00700854618B020B5FFF770
:1003D0003FFFBDE820404FF000064FF000074FF010
:1003E00000084FF0000B21F00701AC46ACE8C00953
:1003F000ACE8C009ACE8C009ACE8C0098D4670475C
:1004000010B50446AFF300802046BDE81040FFF76A
:100410000ABF000000487047100000200149182062
:10042000ABBEFEE7260002007047FEE77047000003
:1004300070B5044600F004F90546601C02D004487B
:100440000078044400F0FCF8401BA042FAD370BDD1
:10045000000000202DE9F84FDFF8B8A100220124A8
:100460000AF1040B03254FF00F090BF1040E00BF36
:100470000B6804FA02F63340B34273D10F7907F0E8
:100480000307012F01D0022F16D187684FEA4208D7
:1004900005FA08FC27EA0C07D1F80CC00CFA08FC96
:1004A0004CEA070CC0F808C04768B7430E79C6F39A
:1004B000001696403E4346600E79F643B6070DD0CF
:1004C000C768560005FA06FC27EA0C07D1F808C0F1
:1004D0000CFA06FC4CEA070CC0F80CC00E7906F0CA
:1004E0000306022E10D1D60800EB8608D8F820604B
:1004F00057074FEAD76C09FA0CF7BE430F6907FAA2
:100500000CF73743C8F8207006684FEA420C05FA2A
:100510000CF7BE430F7907F0030707FA0CF73743D0
:1005200007604E6816F4403F6DD03B4E376847F485
:1005300080473760366822F0030706F4804600964D
:10054000364E07EB060CDCF8086897073F0F09FAF0
:1005500007F826EA0806DFF8C880404503D14FF0C7
:1005600000081EE04FE0DFF8BC80404502D14FF0AC
:10057000010816E0DFF8B080404502D14FF00208D4
:100580000FE0DFF8A880404502D14FF0030808E0F3
:10059000DFF89C80404502D14FF0040801E04FF0A5
:1005A000070808FA07F848EA0608CCF80888DAF8D5
:1005B00000605746D1F804C09E435FEACC3C00D5AA
:1005C0001E433E60DBF800605F46D1F804C09E43E6
:1005D0005FEA8C3C00D51E433E60DEF80060774643
:1005E000D1F804C09E435FEACC2C00D51E433E6088
:1005F000084F0C373E68D1F804C09E435FEA8C2C4C
:1006000000D51E433E60521C102AFFF431AFBDE8F6
:10061000F88F0000003C01404438024000300140A7
:10062000000002400004024000080240000C0240AA
:10063000001002400AB1816170470904FBE7000025
:10064000014880687047000000000020024881686F
:100650000278114481607047000000200B4810B5FB
:10066000016841F400710160016841F4806101603A
:10067000016841F480710160032000F061F80F20EF
:1006800000F006F800F024F8002010BD003C024005
:1006900070B50D4D04464FF47A712878B1FBF0F037
:1006A0000A490968B1FBF0F000F0DEFA48B9102CF5
:1006B00007D200222146501E00F022F800206C6074
:1006C00070BD012070BD0000000000200C00002063
:1006D0000A4808B5016841F480410160006800F4EF
:1006E000804000900548001F016841F08051016082
:1006F000006800F08050009008BD000044380240BF
:10070000F0B40E4B1B680C46C3F30223C3F107057C
:10071000042D00D90425191D072901D2002300E06A
:10072000DB1E012606FA05F1491E214099409E4034
:10073000761E16403143F0BC00F0F5BD0CED00E034
:10074000064900F0070208684FF6FF03184040EA28
:100750000220034A10430860704700000CED00E0DF
:100760000000FA052DE9F0470E46050065D0DFF8D8
:100770001481D8F80000F7B200F00700B04207D2A9
:1007800088F80070D8F8000000F00700B04254D19B
:1007900028683D4C810712D5400703D5206840F4F6
:1007A000E05020602878000703D5206840F46040BE
:1007B00020602068A96820F0F000084320602878B5
:1007C000C0072DD0304968680839012812D00228A6
:1007D00013D0032811D00968890700292DDA216870
:1007E00021F0030101432160FFF72AFF814641F216
:1007F000883A0EE009688903EFE709688901ECE7A8
:10080000FFF71EFFA0EB0901514502D90320BDE807
:10081000F0872068696800F00C00B0EB810FEFD121
:10082000D8F80010404601F00701B14207D907701F
:10083000006800F00700B04201D00120E7E7287807
:10084000400705D52068E96820F4E050084320609F
:100850002878000706D52068296920F4604040EA1E
:10086000C100206000F018F82168084AC1F30311A4
:10087000515CC8400649086006480068FFF708FF59
:100880000020C4E7003C0240083802408013000802
:100890000C00002004000020154810B5006810F07E
:1008A0000C02144813D01449042A0FD0082A0ED180
:1008B0000F4C241F2268236802F03F025B0207D519
:1008C0002068C0F38810A0FB010106E0084610BDB7
:1008D0002168C1F38811A1FB00010023FFF7CAFCC6
:1008E0002168C1F30141491C4900B0FBF1F010BD82
:1008F000083802400024F40040787D012DE9F84FCB
:1009000004006ED02078DFF84C93C007A9F10405ED
:100910004AD009F104000168C1F38101012908D01E
:100920000068C0F3810002280AD1D9F80000400213
:1009300006D52868800337D560680028E1D033E009
:100940006068B0F5803F10D0B0F5A02F286810D0B7
:1009500020F480302860286820F4802028606068B7
:10096000A8B1FFF76DFE06460DE0286840F4803020
:10097000F4E740F480202860F7E700BFFFF760FE4F
:10098000801B642873D828688003F7D50CE0FFF734
:1009900057FE064605E000BFFFF752FE801B6428A5
:1009A000F0D828688003F7D42078DFF8AC8280077D
:1009B0004FF0000A3ED5A748001D016811F00C0F4A
:1009C00008D00068C0F3810002280BD1D9F80000DC
:1009D000400207D42868800716D5E068012800D1B6
:1009E00012E033E1E068B8B10120C8F80000FFF779
:1009F00027FE064605E000BFFFF722FE801B022807
:100A0000C0D828688007F7D52868216920F0F80049
:100A100040EAC10028600DE0C8F800A0FFF710FE12
:100A2000064604E0FFF70CFE801B02281FD828684A
:100A30008007F7D42078000722D5864F8748616960
:100A4000703771B101210160FFF7FAFD064604E03D
:100A5000FFF7F6FD801B022809D838688007F7D514
:100A60000EE0C0F800A0FFF7EBFD064605E082E0CF
:100A7000FFF7E6FD801B02287DD838688007F7D491
:100A80002078400768D5DFF8CCB100270BF13C0B8C
:100A9000DBF80000C0000BD4DBF8001041F08051FF
:100AA000CBF80010DBF80000012700F08050009028
:100AB0006B4E3068C00510D4306840F480703060F0
:100AC000FFF7BEFD009005E0FFF7BAFD0099401A60
:100AD000022850D83068C005F6D55E4EA0686C3646
:100AE00001280FD00528306810D020F001003060B8
:100AF000306820F004003060A068B8B1FFF7A0FDB6
:100B000000900FE0306840F00100F4E740F004008E
:100B10003060F7E7FFF794FD0099411A41F2883001
:100B2000814266D830688007F4D50EE0FFF788FD73
:100B3000009007E0FFF784FD0099411A41F28830E8
:100B4000814256D830688007F4D42FB1DBF800100A
:100B500021F08051CBF80010A069C8B33D49091DB0
:100B60000968C1F3810102294AD00228504607D002
:100B7000C8F8600000E03CE0FFF762FD04463BE09F
:100B80004746C8F86000FFF75BFD064605E000BF7A
:100B9000FFF756FD801B02282BD828688001F7D468
:100BA000D4E907010843A16A2E4A490802EB014132
:100BB000626A41EA8211084394F82C1040EA01610C
:100BC000C9F8001001203866FFF73AFD044606E038
:100BD0003EE000BFFFF734FD001B022809D828685B
:100BE0008001F7D534E000BFFFF72AFD001B022883
:100BF00002D90320BDE8F88F28688001F4D427E0EB
:100C00000128F7D0D9F80000E26900F48001914290
:100C10001CD1226A00F03F01914217D147F6C07102
:100C2000626A0140B1EB821F10D1A26A4FF0FF331C
:100C300000F4403103EB5202B1EB024F06D194F8BD
:100C40002C1000F07060B0EB016F01D00120D1E7F3
:100C50000020CFE70438024000004742800E4742A0
:100C6000007000400000FFFF10B5401EB0F1807F13
:100C700001D3012010BD4FF0E02460610F21601707
:100C800000F051FB0020A06107202061002010BD72
:100C9000FEE700002DE9F04186B014216846FFF719
:100CA00060FB22480025016841F0100101600168E5
:100CB00001F010010591016841F0800101600168B7
:100CC00001F080010591016841F0080101600068B0
:100CD000174F00F00800059000220F213846FFF75B
:100CE000A9FCDFF8508000224FF6FF714046FFF765
:100CF000A1FC0F20012402268DE8710069463846C8
:100D0000FFF7A8FB4FF6F7708DE871006946404683
:100D1000FFF7A0FB08208DE83100694640460394A8
:100D2000FFF798FB06B0BDE8F081000030380240C4
:100D300000100240000C0240FEE7FEE770477047DB
:100D400010B5344C012211462046FFF773FC0122F6
:100D500002212046FFF76EFC012204212046FFF706
:100D600069FC012208212046FFF764FC01221021C2
:100D70002046FFF75FFC012220212046FFF75AFCA6
:100D8000012240212046FFF755FC01228021204608
:100D9000FFF750FC012211022046FFF74BFC012215
:100DA00051022046FFF746FC012291022046FFF740
:100DB00041FC0122D1022046FFF73CFC0122110335
:100DC0002046FFF737FC012251032046FFF732FC93
:100DD000012291032046FFF72DFC0122D10320467A
:100DE000FFF728FC0C4C012211462046FFF722FC9D
:100DF000012202212046FFF71DFC0122042120468A
:100E0000FFF718FC20460122BDE810400821FFF73B
:100E100011BC0000000C02400010024010B500F0B0
:100E200011FA6420FFF704FB514C012211462046C1
:100E3000FFF700FC6420FFF7FBFA012202212046A5
:100E4000FFF7F8FB6420FFF7F3FA012204212046A4
:100E5000FFF7F0FB6420FFF7EBFA012208212046A0
:100E6000FFF7E8FB6420FFF7E3FA01221021204698
:100E7000FFF7E0FB6420FFF7DBFA01222021204688
:100E8000FFF7D8FB6420FFF7D3FA01224021204668
:100E9000FFF7D0FB6420FFF7CBFA01228021204628
:100EA000FFF7C8FB6420FFF7C3FA012211022046B6
:100EB000FFF7C0FB6420FFF7BBFA01225102204676
:100EC000FFF7B8FB6420FFF7B3FA01229102204636
:100ED000FFF7B0FB6420FFF7ABFA0122D1022046F6
:100EE000FFF7A8FB6420FFF7A3FA012211032046B5
:100EF000FFF7A0FB6420FFF79BFA01225103204675
:100F0000FFF798FB6420FFF793FA01229103204634
:100F1000FFF790FB6420FFF78BFA0122D1032046F4
:100F2000FFF788FB6420FFF783FA124C0122114679
:100F30002046FFF77FFB6420FFF77AFA01220221A7
:100F40002046FFF777FB6420FFF772FA01220421A5
:100F50002046FFF76FFB6420FFF76AFA01220821A1
:100F60002046FFF767FBBDE810406420FFF760BA3A
:100F7000000C02400010024070B500F063F96420DC
:100F8000FFF756FA874C012211462046FFF752FB25
:100F90006420FFF74DFA002201212046FFF74AFBAB
:100FA000012202212046FFF745FB6420FFF740FAAB
:100FB000002202212046FFF73DFB012204212046AA
:100FC000FFF738FB6420FFF733FA002204212046A4
:100FD000FFF730FB012208212046FFF72BFB64209E
:100FE000FFF726FA002208212046FFF723FB012203
:100FF00010212046FFF71EFB6420FFF719FA00229C
:1010000010212046FFF716FB012220212046FFF782
:1010100011FB6420FFF70CFA002220212046FFF785
:1010200009FB012240212046FFF704FB6420FFF763
:10103000FFF9002240212046FFF7FCFA012280211F
:101040002046FFF7F7FA6420FFF7F2F9002280212B
:101050002046FFF7EFFA0122150229462046FFF746
:10106000E9FA6420FFF7E4F9002229462046FFF759
:10107000E1FA0122550229462046FFF7DBFA6420F7
:10108000FFF7D6F9002229462046FFF7D3FA0122BE
:10109000950229462046FFF7CDFA6420FFF7C8F9EC
:1010A000002229462046FFF7C5FA0122D50229462B
:1010B0002046FFF7BFFA6420FFF7BAF9002229465D
:1010C0002046FFF7B7FA0122150329462046FFF70D
:1010D000B1FA6420FFF7ACF9002229462046FFF759
:1010E000A9FA0122550329462046FFF7A3FA6420F6
:1010F000FFF79EF9002229462046FFF79BFA0122BE
:10110000950329462046FFF795FA6420FFF790F9EA
:10111000002229462046FFF78DFA0122D5032946F1
:101120002046FFF787FA6420FFF782F9002229465C
:101130002046FFF77FFA1C4C012211462046FFF79C
:1011400079FA6420FFF774F9002201212046FFF7A5
:1011500071FA012202212046FFF76CFA6420FFF7A2
:1011600067F9002202212046FFF764FA01220421D8
:101170002046FFF75FFA6420FFF75AF900220421A6
:101180002046FFF757FA012208212046FFF752FABE
:101190006420FFF74DF92046BDE870400022082189
:1011A000FFF748BA000C024000100240FFF74EBAA9
:1011B00030B593B030216846FFF7D3F814210CA85E
:1011C000FFF7CFF819480024016841F08051016011
:1011D000006800F0805011901548016821F44041EA
:1011E00041F4004101600068012500F44040119085
:1011F00028040694CDE900506846FFF77FFB08B14C
:1012000072B6FEE70F20CDE90C054FF4A050CDE9F2
:101210000E404FF48050109000210CA8FFF7A2FA66
:10122000002801D072B6FEE713B030BD403802404E
:10123000007000400248016841F47001016070478D
:1012400088ED00E010B5354C002201212046FFF763
:10125000F1F9002202212046FFF7ECF900220421D7
:101260002046FFF7E7F9002208212046FFF7E2F9C0
:10127000002210212046FFF7DDF900222021204620
:10128000FFF7D8F9002240212046FFF7D3F90022CA
:1012900080212046FFF7CEF90022A1152046FFF756
:1012A000C9F9002261152046FFF7C4F90022211573
:1012B0002046FFF7BFF90022E1142046FFF7BAF9F4
:1012C0000022A1142046FFF7B5F900224FF4005187
:1012D0002046FFF7AFF900224FF480412046FFF788
:1012E000A9F900224FF400412046FFF7A3F90C4C66
:1012F000002201212046FFF79DF90022022120460D
:10130000FFF798F9002204212046FFF793F92046C1
:101310000022BDE810400821FFF78CB9000C024004
:1013200000100240FEE70907090E002804DB00F167
:10133000E02080F80014704700F00F0000F1E0207A
:1013400080F8141D7047FFF789F9FFF731FFFFF7A9
:10135000A1FCFFF7F5FC6420FFF76AF8FFF772FFC6
:101360006420FFF765F8FFF759FD6420FFF760F888
:10137000FFF702FEEDE74FF04070E1EE100A704714
:101380000000000000000000010203040607080935
:10139000B01300080000002010000000D001000879
:1013A000C01300081000002060060000EC010008D7
:1013B0000100000010000000000000000024F40004
:040000050800019559
:00000001FF
