:100000000C945C000C9479000C9479000C947900A9
:100010000C9479000C9479000C9479000C9479007C
:100020000C9479000C9479000C9479000C9479006C
:100030000C9479000C9479000C9479000C9479005C
:100040000C9432010C9479000C9479000C94790092
:100050000C9479000C9479000C9479000C9479003C
:100060000C9479000C947900000000080002010053
:100070000003040700000000000000000000000072
:10008000250028002B0000000000240027002A0083
:10009000040404040404040402020202020203032E
:1000A0000303030301020408102040800102040836
:1000B000102001020408102011241FBECFEFD8E049
:1000C000DEBFCDBF11E0A0E0B1E0EAE9F4E002C09C
:1000D00005900D92A035B107D9F721E0A0E5B1E078
:1000E00001C01D92AF35B207E1F70E947C010C946C
:1000F0004B020C94000090E0FC01EC55FF4F249162
:1001000080579F4FFC018491882399F090E0880FDD
:10011000991FFC01EA57FF4FA591B491FC01E458E7
:10012000FF4F859194918FB7F894EC91E22BEC936B
:100130008FBF089590E0FC01E859FF4F2491FC0126
:10014000EC55FF4F3491FC01E057FF4FE491EE2353
:10015000C9F0222339F0233001F1A8F4213019F13C
:10016000223029F1F0E0EE0FFF1FE458FF4FA59178
:10017000B4918FB7F894EC91611126C030953E236D
:100180003C938FBF08952730A9F02830C9F0243060
:1001900049F7809180008F7D03C0809180008F7728
:1001A00080938000DFCF84B58F7784BDDBCF84B5AB
:1001B0008F7DFBCF8091B0008F778093B000D2CF3E
:1001C0008091B0008F7DF9CF3E2BDACFBF92CF92D6
:1001D000DF92EF92FF920F931F93CF93DF93EC0187
:1001E0006B0100E011E0780161E0F70181917F018E
:1001F0000E949A00F8E0EF16F1E0FF06A9F7C25B53
:10020000DE4FB88061E08B2D0E949A0087E08C9DC4
:1002100070018D9DF00C1124D0E0C0E0FE01EE0DC8
:10022000FF1DE85FFE4F6081F80181918F010E9400
:100230009A002196C730D10589F761E089E00E94D4
:100240009A008BE99FE00197F1F760E08B2DDF9139
:10025000CF911F910F91FF90EF90DF90CF90BF90C3
:100260000C949A001F920F920FB60F9211242F93A5
:100270003F938F939F93AF93BF938091550190913C
:100280005601A0915701B09158013091540123E0DB
:10029000230F2D3758F50196A11DB11D2093540150
:1002A0008093550190935601A0935701B093580144
:1002B0008091500190915101A0915201B091530150
:1002C0000196A11DB11D8093500190935101A093FF
:1002D0005201B0935301BF91AF919F918F913F9184
:1002E0002F910F900FBE0F901F90189526E8230FA7
:1002F0000296A11DB11DD2CF789484B5826084BDD1
:1003000084B5816084BD85B5826085BD85B5816019
:1003100085BD80916E00816080936E001092810097
:100320008091810082608093810080918100816052
:100330008093810080918000816080938000809113
:10034000B10084608093B1008091B000816080939F
:10035000B00080917A00846080937A0080917A0066
:10036000826080937A0080917A00816080937A0025
:1003700080917A00806880937A001092C100C0E07A
:10038000D1E00AE011E089910E947B000C171D0763
:10039000D1F78EE00E947B008FE00E947B0060E03E
:1003A0008EE00E949A0060E08FE00E949A008AE04E
:1003B000882E912CA12CB12CC0E0D0E08FB7F894FE
:1003C000409055015090560160905701709058012F
:1003D0008FBFC301B20128EE33E040E050E00E943D
:1003E000290269017A01C0925B01D0925C01E0921E
:1003F0005D01F0925E01C301B20120E137E240E00D
:1004000050E00E942902CA01B901A50194010E948D
:1004100029022B0170935A0160935901C701B6015B
:10042000A50194010E94290281E090E00E94E6006B
:100430008AE0C816D104E104F10428F0B20190E08A
:1004400080E00E94E600209709F4B8CF0E940000E7
:10045000B5CFA1E21A2EAA1BBB1BFD010DC0AA1F1E
:10046000BB1FEE1FFF1FA217B307E407F50720F01D
:10047000A21BB30BE40BF50B661F771F881F991F98
:100480001A9469F760957095809590959B01AC01E1
:0A049000BD01CF010895F894FFCFDD
:10049A000203040506070809000000000000010124
:1004AA00000001010101000001000001000000003C
:1004BA00000101000100000101000000010000012B
:1004CA00000000010000000000000000010101011D
:1004DA0000000000000000000000000100000E0FF4
:00000001FF
