:100000000C9461000C946F010C9448010C947E00D8
:100010000C947E000C947E000C947E000C947E0068
:100020000C947E000C947E000C947E000C947E0058
:100030000C947E000C947E000C947E000C947E0048
:100040000C94FE000C947E000C947E000C947E00B8
:100050000C947E000C947E000C947E000C947E0028
:100060000C947E000C947E0000000000230026000B
:10007000290000000008000201000003040700003E
:1000800000000000000000000000250028002B00F8
:1000900000000000240027002A00040404040404D3
:1000A0000404020202020202030303030303010227
:1000B00004081020408001020408102001020408F6
:1000C000102011241FBECFEFD8E0DEBFCDBF11E05E
:1000D000A0E0B1E0E4E5F4E002C005900D92A430A8
:1000E000B107D9F721E0A4E0B1E001C01D92AF3023
:1000F000B207E1F70E9496010C9428020C940000CC
:10010000833081F028F4813099F08230A9F008958D
:100110008730A9F08830C9F08430B1F48091800034
:100120008F7D03C0809180008F7780938000089539
:1001300084B58F7784BD089584B58F7DFBCF809182
:10014000B0008F778093B00008958091B0008F7DCC
:10015000F9CF08950F931F93CF93DF93E4E7F0E077
:100160008491E0EBF0E0D491ECE9F0E0C491CC2391
:1001700009F43FC081110E948000EC2FF0E0EE0FE7
:10018000FF1FE859FF4FA591B491EC91ED2331E0A9
:1001900020E009F430E0832F922F909305018093A3
:1001A00004010091040110910501E9E7F0E0849158
:1001B000E5EBF0E0D491E1EAF0E0C491CC23A1F0CA
:1001C00081110E948000EC2FF0E0EE0FFF1FEA5734
:1001D000FF4FA591B4918FB7F894EC9101110CC029
:1001E000D095DE23DC938FBFDF91CF911F910F91CC
:1001F000089590E080E0D1CFDE2BF4CF1F920F92D4
:100200000FB60F9211242F933F938F939F93AF9329
:10021000BF9380910B0190910C01A0910D01B091C1
:100220000E0130910A0123E0230F2D3758F5019676
:10023000A11DB11D20930A0180930B0190930C0125
:10024000A0930D01B0930E018091060190910701DA
:10025000A0910801B09109010196A11DB11D8093E3
:10026000060190930701A0930801B0930901BF9183
:10027000AF919F918F913F912F910F900FBE0F9053
:100280001F90189526E8230F0296A11DB11DD2CF0D
:100290001F920F920FB60F9211242F933F934F93FB
:1002A0005F936F937F938F939F93AF93BF93EF93DE
:1002B000FF93E0910201F09103010995FF91EF9105
:1002C000BF91AF919F918F917F916F915F914F916E
:1002D0003F912F910F900FBE0F901F9018951F9276
:1002E0000F920FB60F9211242F933F934F935F936A
:1002F0006F937F938F939F93AF93BF93EF93FF93EE
:10030000E0910001F09101010995FF91EF91BF91FA
:10031000AF919F918F917F916F915F914F913F919D
:100320002F910F900FBE0F901F901895789484B561
:10033000826084BD84B5816084BD85B5826085BDE1
:1003400085B5816085BD80916E00816080936E006F
:100350001092810080918100826080938100809161
:100360008100816080938100809180008160809312
:1003700080008091B10084608093B1008091B000D2
:1003800081608093B00080917A00846080937A00CD
:1003900080917A00826080937A0080917A008160F7
:1003A00080937A0080917A00806880937A0010921E
:1003B000C100E5EBF0E02491E1EAF0E084918823CC
:1003C00099F090E0880F991FFC01E057FF4FA5912D
:1003D000B491FC01EA57FF4F859194918FB7F8943F
:1003E000EC91E22BEC938FBFE0EBF0E02491ECE991
:1003F000F0E084918823C1F090E0880F991FFC0100
:10040000E057FF4FC591D491FC01EA57FF4FA591EA
:10041000B4919FB7F8948881E22FE0958E2388836A
:100420008C91E823EC939FBF8AEA90E090930101BE
:1004300080930001809169008C7F816080936900C6
:10044000E89AC0E0D0E02097F1F30E940000FBCFD3
:04045000F894FFCF4E
:04045400A900A90052
:00000001FF
