:100000000C9458000C9480000C9480000C94800098
:100010000C9480000C9480000C9480000C94800060
:100020000C9480000C9480000C9480000C94800050
:100030000C9480000C9480000C9480000C94800040
:100040000C9454020C9480000C9422020C94FC0139
:100050000C9480000C9480000C9480000C94800020
:100060000C9480000C948000000000002500280003
:100070002B00040404040404040402020202020229
:10008000030303030303010204081020408001025C
:1000900004081020010204081020000000080002DB
:1000A0000100000304070000000000000000D50369
:1000B00011241FBECFEFD8E0DEBFCDBF11E0A0E01E
:1000C000B1E0EAECF8E002C005900D92A231B10770
:1000D000D9F721E0A2E1B1E001C01D92A83BB2072F
:1000E000E1F710E0C8E5D0E004C02197FE010E94CE
:1000F0005D04C735D107C9F70E949E020C946304C2
:100100000C940000E4EAF0E02491E0E9F0E094913E
:10011000ECE7F0E0E491EE23C9F0222339F023303C
:1001200001F1A8F4213019F1223029F1F0E0EE0FAD
:10013000FF1FE859FF4FA591B4912FB7F894EC91A8
:10014000811126C090959E239C932FBF0895273040
:10015000A9F02830C9F0243049F7209180002F7D84
:1001600003C0209180002F7720938000DFCF24B53B
:100170002F7724BDDBCF24B52F7DFBCF2091B0009E
:100180002F772093B000D2CF2091B0002F7DF9CFF0
:100190009E2BDACFAF92BF92CF92DF92EF92FF9277
:1001A0000F931F93CF93DF936C017B018B01040F9F
:1001B000151FEB015E01AE18BF08C017D10759F03B
:1001C0006991D601ED91FC910190F081E02DC6017D
:1001D0000995892B79F7C501DF91CF911F910F9177
:1001E000FF90EF90DF90CF90BF90AF900895FC010B
:1001F000538D448D252F30E0842F90E0821B930B8C
:10020000541710F0CF96089501970895FC01918D31
:10021000828D981761F0A28DAE0FBF2FB11D5D9634
:100220008C91928D9F5F9F73928F90E008958FEFD6
:100230009FEF0895FC01918D828D981731F0828D8A
:10024000E80FF11D858D90E008958FEF9FEF0895E1
:10025000FC01918D228D892F90E0805C9F4F821B45
:1002600091098F73992708958BE191E00E942801ED
:1002700021E0892B09F420E0822F089580E090E0AE
:10028000892B29F00E94340181110C9400000895FB
:10029000FC01A48DA80FB92FB11DA35ABF4F2C91FB
:1002A000848D90E001968F739927848FA689B789F2
:1002B0002C93A089B1898C91837080648C93938DE9
:1002C000848D981306C00288F389E02D80818F7D8C
:1002D00080830895EF92FF920F931F93CF93DF9344
:1002E000EC0181E0888F9B8D8C8D98131AC0E88972
:1002F000F989808185FF15C09FB7F894EE89FF8941
:100300006083E889F98980818370806480839FBFDE
:1003100081E090E0DF91CF911F910F91FF90EF90DE
:100320000895F62E0B8D10E00F5F1F4F0F731127EE
:10033000E02E8C8D8E110CC00FB607FCFACFE88929
:10034000F989808185FFF5CFCE010E944801F1CF68
:10035000EB8DEC0FFD2FF11DE35AFF4FF0829FB79D
:10036000F8940B8FEA89FB8980818062CFCFCF938D
:10037000DF93EC01888D8823B9F0AA89BB89E889CD
:10038000F9898C9185FD03C0808186FD0DC00FB673
:1003900007FCF7CF8C9185FFF2CF808185FFEDCFF1
:1003A000CE010E944801E9CFDF91CF9108953FB778
:1003B000F8948091170190911801A0911901B091C2
:1003C0001A0126B5A89B05C02F3F19F00196A11D63
:1003D000B11D3FBFBA2FA92F982F8827BC01CD018F
:1003E000620F711D811D911D42E0660F771F881FEE
:1003F000991F4A95D1F708951F920F920FB60F9249
:1004000011242F933F934F935F936F937F938F9319
:100410009F93AF93BF93EF93FF938BE191E00E9483
:100420004801FF91EF91BF91AF919F918F917F9183
:100430006F915F914F913F912F910F900FBE0F9051
:100440001F9018951F920F920FB60F9211242F93A1
:100450008F939F93EF93FF93E0912B01F0912C01E9
:100460008081E0913101F091320182FD1BC09081C9
:10047000809134018F5F8F7320913501821741F095
:10048000E0913401F0E0E55EFE4F958F80933401FA
:10049000FF91EF919F918F912F910F900FBE0F9031
:1004A0001F9018958081F4CF1F920F920FB60F9274
:1004B00011242F933F938F939F93AF93BF9380917A
:1004C000130190911401A0911501B0911601309182
:1004D000120123E0230F2D3758F50196A11DB11D00
:1004E000209312018093130190931401A09315019E
:1004F000B09316018091170190911801A0911901F4
:10050000B0911A010196A11DB11D8093170190931E
:100510001801A0931901B0931A01BF91AF919F9157
:100520008F913F912F910F900FBE0F901F901895B4
:1005300026E8230F0296A11DB11DD2CFCF93DF93E2
:10054000CDB7DEB7A1970FB6F894DEBF0FBECDBF13
:10055000789484B5826084BD84B5816084BD85B59E
:10056000826085BD85B5816085BD80916E008160AA
:1005700080936E0010928100809181008260809350
:100580008100809181008160809381008091800052
:100590008160809380008091B10084608093B1007D
:1005A0008091B00081608093B00080917A00846077
:1005B00080937A0080917A00826080937A008091A3
:1005C0007A00816080937A0080917A0080688093BD
:1005D0007A001092C100E0912B01F0912C0182E091
:1005E0008083E0912701F09128011082E091290198
:1005F000F0912A0184E1808310923301E0912F0170
:10060000F091300186E08083E0912D01F0912E0180
:10061000808180618083E0912D01F0912E018081A5
:1006200088608083E0912D01F0912E0180818068A7
:100630008083E0912D01F0912E0180818F7D808358
:100640009AE0892E912CA12CB12C20E0222E20E0C2
:10065000322E20E420937C0080917A008064809385
:100660007A0080917A0086FDFCCF809178002091FD
:100670007900322F282F032E000C440B550B2451E8
:10068000310941095109A5EAB0E00E94210422E59F
:1006900031E040E050E00E94020469017A01DA0191
:1006A000C9018897A109B1093C01B7FF68C06DE293
:1006B0008BE191E00E946A0128E230E040E050E0E6
:1006C0002C193D094E095F0919A28E010F5D1F4FBC
:1006D000CA01B901A50194010E942C04605DF801D2
:1006E00062938F01211531054105510589F70115E7
:1006F000110561F001900020E9F73197AF01401B2F
:10070000510BB8018BE191E00E94CA0081E0F6E252
:100710006F1671040CF480E00E9482000E94D701E1
:100720002B013C0188EEC82E83E0D82EE12CF12C61
:100730000E94D7016419750986099709683E7340BC
:1007400081059105A8F321E0C21AD108E108F1085A
:1007500088EE480E83E0581E611C711CC114D10440
:10076000E104F10429F72114310409F472CF0E9445
:100770003401882309F46DCF0E9400006ACF9C01E8
:10078000AD0119A28E010F5D1F4FCA01B901A5016C
:1007900094010E942C04605DF80162938F01211581
:1007A00031054105510589F7A2CFEBE1F1E0138254
:1007B000128288EE93E0A0E0B0E084839583A68364
:1007C000B78384E091E09183808385EC90E0958706
:1007D000848784EC90E09787868780EC90E0918B0B
:1007E000808B81EC90E0938B828B82EC90E0958BF8
:1007F000848B86EC90E0978B868B118E128E138EF5
:10080000148E0895052E97FB1EF400940E9419047F
:1008100057FD07D00E942C0407FC03D04EF40C9423
:10082000190450954095309521953F4F4F4F5F4F9C
:10083000089590958095709561957F4F8F4F9F4F4C
:1008400008950E944E04A59F900DB49F900DA49F03
:10085000800D911D11240895A1E21A2EAA1BBB1B25
:10086000FD010DC0AA1FBB1FEE1FFF1FA217B3077C
:10087000E407F50720F0A21BB30BE40BF50B661F92
:10088000771F881F991F1A9469F760957095809556
:1008900090959B01AC01BD01CF010895A29FB001CD
:1008A000B39FC001A39F700D811D1124911DB29FA4
:1008B000700D811D1124911D0895EE0FFF1F0590ED
:0A08C000F491E02D0994F894FFCFA5
:1008CA00000000006A01CA00F700B701280106010A
:0208DA001A0101
:00000001FF
